{
  "_format": "hh-sol-artifact-1",
  "contractName": "Token",
  "sourceName": "contracts/Token.sol",
  "abi": [
    {
      "inputs": [],
      "stateMutability": "nonpayable",
      "type": "constructor"
    },
    {
      "inputs": [],
      "name": "TotalSupply",
      "outputs": [
        {
          "internalType": "uint256",
          "name": "",
          "type": "uint256"
        }
      ],
      "stateMutability": "view",
      "type": "function"
    },
    {
      "inputs": [
        {
          "internalType": "address",
          "name": "account",
          "type": "address"
        }
      ],
      "name": "checkBalance",
      "outputs": [
        {
          "internalType": "uint256",
          "name": "",
          "type": "uint256"
        }
      ],
      "stateMutability": "view",
      "type": "function"
    },
    {
      "inputs": [],
      "name": "name",
      "outputs": [
        {
          "internalType": "string",
          "name": "",
          "type": "string"
        }
      ],
      "stateMutability": "view",
      "type": "function"
    },
    {
      "inputs": [],
      "name": "owner",
      "outputs": [
        {
          "internalType": "address",
          "name": "",
          "type": "address"
        }
      ],
      "stateMutability": "view",
      "type": "function"
    },
    {
      "inputs": [],
      "name": "symbol",
      "outputs": [
        {
          "internalType": "string",
          "name": "",
          "type": "string"
        }
      ],
      "stateMutability": "view",
      "type": "function"
    },
    {
      "inputs": [
        {
          "internalType": "address",
          "name": "receiver",
          "type": "address"
        },
        {
          "internalType": "uint256",
          "name": "amount",
          "type": "uint256"
        }
      ],
      "name": "transferToken",
      "outputs": [],
      "stateMutability": "nonpayable",
      "type": "function"
    }
  ],
  "bytecode": "0x60806040526040518060400160405280600b81526020017f4d6f6e6b6579546f6b656e000000000000000000000000000000000000000000815250600090816200004a9190620003ac565b506040518060400160405280600281526020017f4d5400000000000000000000000000000000000000000000000000000000000081525060019081620000919190620003ac565b506064600255348015620000a457600080fd5b50600254600460003373ffffffffffffffffffffffffffffffffffffffff1673ffffffffffffffffffffffffffffffffffffffff1681526020019081526020016000208190555033600360006101000a81548173ffffffffffffffffffffffffffffffffffffffff021916908373ffffffffffffffffffffffffffffffffffffffff16021790555062000493565b600081519050919050565b7f4e487b7100000000000000000000000000000000000000000000000000000000600052604160045260246000fd5b7f4e487b7100000000000000000000000000000000000000000000000000000000600052602260045260246000fd5b60006002820490506001821680620001b457607f821691505b602082108103620001ca57620001c96200016c565b5b50919050565b60008190508160005260206000209050919050565b60006020601f8301049050919050565b600082821b905092915050565b600060088302620002347fffffffffffffffffffffffffffffffffffffffffffffffffffffffffffffffff82620001f5565b620002408683620001f5565b95508019841693508086168417925050509392505050565b6000819050919050565b6000819050919050565b60006200028d62000287620002818462000258565b62000262565b62000258565b9050919050565b6000819050919050565b620002a9836200026c565b620002c1620002b88262000294565b84845462000202565b825550505050565b600090565b620002d8620002c9565b620002e58184846200029e565b505050565b5b818110156200030d5762000301600082620002ce565b600181019050620002eb565b5050565b601f8211156200035c576200032681620001d0565b6200033184620001e5565b8101602085101562000341578190505b620003596200035085620001e5565b830182620002ea565b50505b505050565b600082821c905092915050565b6000620003816000198460080262000361565b1980831691505092915050565b60006200039c83836200036e565b9150826002028217905092915050565b620003b78262000132565b67ffffffffffffffff811115620003d357620003d26200013d565b5b620003df82546200019b565b620003ec82828562000311565b600060209050601f8311600181146200042457600084156200040f578287015190505b6200041b85826200038e565b8655506200048b565b601f1984166200043486620001d0565b60005b828110156200045e5784890151825560018201915060208501945060208101905062000437565b868310156200047e57848901516200047a601f8916826200036e565b8355505b6001600288020188555050505b505050505050565b610aab80620004a36000396000f3fe608060405234801561001057600080fd5b50600436106100625760003560e01c806306fdde03146100675780631072cbea146100855780635f515226146100a15780638da5cb5b146100d157806395d89b41146100ef578063a44b47f71461010d575b600080fd5b61006f61012b565b60405161007c919061071a565b60405180910390f35b61009f600480360381019061009a91906107d5565b6101b9565b005b6100bb60048036038101906100b69190610815565b610428565b6040516100c89190610851565b60405180910390f35b6100d9610471565b6040516100e6919061087b565b60405180910390f35b6100f7610497565b604051610104919061071a565b60405180910390f35b610115610525565b6040516101229190610851565b60405180910390f35b60008054610138906108c5565b80601f0160208091040260200160405190810160405280929190818152602001828054610164906108c5565b80156101b15780601f10610186576101008083540402835291602001916101b1565b820191906000526020600020905b81548152906001019060200180831161019457829003601f168201915b505050505081565b6102376040518060400160405280601881526020017f2a2a496e697469616c2053656e6465722062616c616e63650000000000000000815250600460003373ffffffffffffffffffffffffffffffffffffffff1673ffffffffffffffffffffffffffffffffffffffff1681526020019081526020016000205461052b565b80600460003373ffffffffffffffffffffffffffffffffffffffff1673ffffffffffffffffffffffffffffffffffffffff1681526020019081526020016000205410156102b9576040517f08c379a00000000000000000000000000000000000000000000000000000000081526004016102b090610942565b60405180910390fd5b6102fa6040518060400160405280601781526020017f2a2a5b2573202d3e2025735d20746f6b656e733a2025730000000000000000008152503384846105c7565b80600460003373ffffffffffffffffffffffffffffffffffffffff1673ffffffffffffffffffffffffffffffffffffffff16815260200190815260200160002060008282546103499190610991565b9250508190555080600460008473ffffffffffffffffffffffffffffffffffffffff1673ffffffffffffffffffffffffffffffffffffffff168152602001908152602001600020600082825461039f91906109c5565b925050819055506104246040518060400160405280601681526020017f2a2a46696e616c2053656e6465722062616c616e636500000000000000000000815250600460003373ffffffffffffffffffffffffffffffffffffffff1673ffffffffffffffffffffffffffffffffffffffff1681526020019081526020016000205461052b565b5050565b6000600460008373ffffffffffffffffffffffffffffffffffffffff1673ffffffffffffffffffffffffffffffffffffffff168152602001908152602001600020549050919050565b600360009054906101000a900473ffffffffffffffffffffffffffffffffffffffff1681565b600180546104a4906108c5565b80601f01602080910402602001604051908101604052809291908181526020018280546104d0906108c5565b801561051d5780601f106104f25761010080835404028352916020019161051d565b820191906000526020600020905b81548152906001019060200180831161050057829003601f168201915b505050505081565b60025481565b6105c382826040516024016105419291906109f9565b6040516020818303038152906040527fb60e72cc000000000000000000000000000000000000000000000000000000007bffffffffffffffffffffffffffffffffffffffffffffffffffffffff19166020820180517bffffffffffffffffffffffffffffffffffffffffffffffffffffffff8381831617835250505050610669565b5050565b610663848484846040516024016105e19493929190610a29565b6040516020818303038152906040527f8ef3f399000000000000000000000000000000000000000000000000000000007bffffffffffffffffffffffffffffffffffffffffffffffffffffffff19166020820180517bffffffffffffffffffffffffffffffffffffffffffffffffffffffff8381831617835250505050610669565b50505050565b60006a636f6e736f6c652e6c6f679050600080835160208501845afa505050565b600081519050919050565b600082825260208201905092915050565b60005b838110156106c45780820151818401526020810190506106a9565b60008484015250505050565b6000601f19601f8301169050919050565b60006106ec8261068a565b6106f68185610695565b93506107068185602086016106a6565b61070f816106d0565b840191505092915050565b6000602082019050818103600083015261073481846106e1565b905092915050565b600080fd5b600073ffffffffffffffffffffffffffffffffffffffff82169050919050565b600061076c82610741565b9050919050565b61077c81610761565b811461078757600080fd5b50565b60008135905061079981610773565b92915050565b6000819050919050565b6107b28161079f565b81146107bd57600080fd5b50565b6000813590506107cf816107a9565b92915050565b600080604083850312156107ec576107eb61073c565b5b60006107fa8582860161078a565b925050602061080b858286016107c0565b9150509250929050565b60006020828403121561082b5761082a61073c565b5b60006108398482850161078a565b91505092915050565b61084b8161079f565b82525050565b60006020820190506108666000830184610842565b92915050565b61087581610761565b82525050565b6000602082019050610890600083018461086c565b92915050565b7f4e487b7100000000000000000000000000000000000000000000000000000000600052602260045260246000fd5b600060028204905060018216806108dd57607f821691505b6020821081036108f0576108ef610896565b5b50919050565b7f4e6f2073756666696369656e742062616c616e63650000000000000000000000600082015250565b600061092c601583610695565b9150610937826108f6565b602082019050919050565b6000602082019050818103600083015261095b8161091f565b9050919050565b7f4e487b7100000000000000000000000000000000000000000000000000000000600052601160045260246000fd5b600061099c8261079f565b91506109a78361079f565b92508282039050818111156109bf576109be610962565b5b92915050565b60006109d08261079f565b91506109db8361079f565b92508282019050808211156109f3576109f2610962565b5b92915050565b60006040820190508181036000830152610a1381856106e1565b9050610a226020830184610842565b9392505050565b60006080820190508181036000830152610a4381876106e1565b9050610a52602083018661086c565b610a5f604083018561086c565b610a6c6060830184610842565b9594505050505056fea2646970667358221220181fb5d03aa13cbf7249cc85a7bd2d447a214611e005dfd2c046ee22b485bc8164736f6c63430008120033",
  "linkReferences": {},
  "deployedLinkReferences": {}
}